:100000000C9457020C94A30D0C949E020C949E0227
:100010000C949E020C949E020C949E020C949E02E0
:100020000C949E020C949E020C94FF210C94D122FD
:100030000C94341B0C949E020C949E020C949E0211
:100040000C949E020C949E020C949E020C949E02B0
:100050000C949E020C949C1B0C949E020C949E0289
:100060000C949E020C949E020C949E020C949E0290
:100070000C949E020C949E020C949E020C949E0280
:100080000C949E020C949E020C949E020C949E0270
:100090000C949E020C949E020C949E020C949E0260
:1000A0000C949E020C949E020C949E02850487047C
:1000B000920489048B048D048F04910494049604A3
:1000C0009804A3049A049C049E04A004A204A5041A
:1000D0005411541186118611C61137133713371373
:1000E000E61137139312931203130C1337133013C3
:1000F000A012A012A012A012A012A012A012A01270
:10010000A012A012A012A012A012A012A012A0125F
:10011000AF12BD12C412CB12D512C213C213D41324
:10012000D413CB13D413D413D413C213C213D013C8
:10013000D413D413D0133E236523572465235724A7
:10014000B123D42357242A24392429001E001F0058
:100150002000210022002B0014001A0008001500C6
:100160001700E00004001600070009000A00E10083
:100170001D001B00060019000500000000002F00F4
:10018000E2002C0001512A0027002600250024004F
:1001900023003100130012000C0018001C0028007E
:1001A00033000F000E000D000B004C00380037002C
:1001B00036001000110000000000300034002C0058
:1001C000025135003A003B003C003D003E0000007B
:1001D000000052000000000000000000500051002C
:1001E0004F00000000000000AA00A800A9000000C5
:1001F000000000000000E2002D002E0001002A0097
:100200006200610060005F000000000000005E000E
:100210005D005C000000280000005B005A005900EF
:1002200000004C00540063005500560057000000C9
:1002300000000000000000000000000000000000BE
:1002400000000000000000000000000000000000AE
:10025000000000000000000000000000000000009E
:10026000000000000000000000000000000000008E
:100270000000000000004400430042004100400034
:100280003F00450000000000520000000000000098
:1002900000004F005100500000000000000000006E
:1002A0000000000000000000000000004E004B00B5
:1002B0000100000000000001010101010101010134
:1002C0000202020202020202020303030303030307
:1002D00003040404040404050505050506060606D2
:1002E0000607070707080808080909090A0A0A0A89
:1002F0000B0B0B0C0C0C0D0D0D0E0E0F0F0F101029
:1003000011111112121313141415151616171718AC
:100310001819191A1A1B1C1C1D1D1E1F1F20202115
:1003200022222324252526272728292A2B2B2C2D5A
:100330002E2F2F30313233343536363738393A3B79
:100340003C3D3E3F4041424344464748494A4B4C6E
:100350004D4F50515253555657585A5B5C5E5F6033
:100360006263646667696A6C6D6E707173747678C7
:10037000797B7C7E8081838486888A8B8D8F919225
:100380009496989A9B9D9FA1A3A5A7A9ABADAFB149
:10039000B3B5B7B9BBBDBFC1C4C6C8CACCCFD1D332
:1003A000D6D8DADCDFE1E4E6E8EBEDF0F2F5F7FAD7
:1003B000FCFF0403300000001C03490072006900C8
:1003C000730020004B006500790062006F0061003F
:1003D0007200640000000E034B00650065006200BF
:1003E00069006F0000000403090409023B000201D8
:1003F00000A0FA0904000001030101000921110114
:1004000000012240000705810308000A09040100D9
:100410000103000000092111010001223600070537
:10042000820320000A120110010000000810CB56C0
:100430001200020102030105010980A101850316D2
:1004400001002603001A81002A830075109501819E
:1004500000C0050C0901A1018504160100269C02BB
:100460001A01002A9C02751095018100C00501093E
:1004700006A101050719E029E71500250195087572
:100480000181029501750881010508190129059569
:100490000575019102950175039101050719002960
:1004A000FF150026FF00950675088100C000112485
:1004B0001FBECFEFDAE0DEBFCDBF04B603FE27C01C
:1004C0008091230290912402A0912502B0912602EE
:1004D0008730904BA740B04BD1F41092230210927A
:1004E0002402109225021092260214BE84B7877F40
:1004F00084BF0FB6F894A8958091600088618093BE
:100500006000109260000FBEE0E0F8E3099511E092
:10051000A0E0B1E0EEE9FAE402C005900D92A83245
:10052000B107D9F722E0A8E2B1E001C01D92A332E1
:10053000B207E1F70E94231F0C944D250C94000094
:1005400081E0089581E008950C94A2020C940A08B9
:10055000CF92DF92EF92FF92863030F4811105C086
:10056000909180009F7704C085E090918000906812
:1005700090938000282F30E0AFEFBFEF0E94EB2474
:1005800025E030E040E050E00E94C3242C3784E1B5
:1005900038074105510530F4C90169E070E00E9457
:1005A0009B2429C0DA01C9018A50974DAF4FBF4F34
:1005B0006627782F892F9A2F25EF38E241E050E007
:1005C0000E94C32469017A01CA01B9010E948B24E7
:1005D0009B01AC01C701B6010E948B24BB27A92F48
:1005E000982F872F009721E0A207B10511F0BC01D9
:1005F00002C06FEF7FEF7093890060938800FF90D7
:10060000EF90DF90CF900895259A2D9882E88093FF
:10061000800089E1809381008FEF9FEF90938700A6
:10062000809386000C94E11C0E94191A811102C06B
:100630000E949C1A0E9404030C94070808950C94CD
:100640001E030C941F0308950E94B2130E942303FB
:100650002FEF84E39CE0215080409040E1F700C000
:10066000000087E797E790930108809300080C94B7
:10067000C21BFF920F931F93CF93DF938C01FC015A
:10068000C081D18180916001811113C08281882352
:1006900049F0CE010E94E918F82E682FCE010E9481
:1006A0008C1804C0CE010E94BC18F82EBE018F2DFC
:1006B00004C0CE010E94E918BE010E945905EC0158
:1006C000B8010E94A402882309F4E8C1C93CFCE5F2
:1006D000DF0709F4C1C0C0F5C23C9CE5D90709F4A5
:1006E00086C0C0F4C531FCE5DF0778F4C2308CE584
:1006F000D80708F0E8C0C1159CE5D90709F45CC02B
:10070000C130DC4509F460C0BCC1C631DC4509F428
:1007100091C1B7C1C53C8CE5D80709F487C050F436
:10072000C33CECE5DE0709F469C0C43CDC4509F4D0
:1007300071C0A7C1F8018281C73CFCE5DF0709F45D
:1007400081C008F47AC083C0C63DECE5DE07B0F492
:10075000CE3CFCE5DF0708F0A1C1CB3C8CE5D80717
:1007600009F488C008F47FC0CC3CECE5DE0709F44E
:1007700089C0CD3CDC4509F48DC083C1C93D8CE501
:10078000D80709F43CC150F4C73DECE5DE0709F495
:10079000ECC0C83DDC4509F40BC173C1CD3D8CE50F
:1007A000D80709F487C0CE3D9CE5D907C1F0CC3D00
:1007B000DC4509F066C177C0F8018281882309F41D
:1007C0006DC10E9424036AC1F8018281882309F463
:1007D00065C18091D60181608093D6015FC1F80127
:1007E0008281882309F45AC10E949C1A57C1F801DA
:1007F0008281811153C10E94770C50C1F80182811E
:10080000882309F44BC10E946919827261F00E9429
:10081000680C44C1F8018281882309F43FC10E9419
:1008200069198272A1F30E945A0C38C1F8018281C1
:10083000811134C10E94840B31C181112FC10E94EA
:10084000A80B2CC181112AC10E94C80B27C181119C
:1008500025C10E94E80B22C1F801828181111EC1CD
:100860000E94080C1BC1F8018281811117C10E94EE
:10087000280C14C1F8018281882309F40FC10E9459
:10088000A90A0CC1F8018281882309F407C10E94DA
:10089000BE0A04C1F8018281882309F4FFC081E007
:1008A0000E946B0CFBC0F8018281882309F4F6C01A
:1008B00080E006C0F8018281882309F4EFC082E05D
:1008C0000E94C21FEBC0F8018281882309F4DEC0B8
:1008D0000E94191A811102C00E949C1A0E942C1AAF
:1008E00090E09093140280931302FE01E350FC45C4
:1008F000E231F10530F4EA5AFF4F809113020C9473
:10090000E52480911302816027C0826025C0846045
:1009100023C0806121C080621FC080641DC08068C8
:100920001BC08460886018C08E7F16C08D7F14C085
:100930008B7F12C08F7E10C08F7D0EC08F7B0CC04E
:100940008F770AC08B7F877F07C087FB222720F91C
:1009500091E0922790FB87F9809313028091130214
:100960000E94301A0E94B21399C0F8018281882334
:1009700051F010922D010E94661B90932A018093E2
:10098000290182E022C080912D0181110FC0809148
:10099000290190912A010E94721B883C910530F434
:1009A00086E20E94820F86E20E94B11082E024C09B
:1009B000F8018281882361F010922E010E94661B4B
:1009C00090932C0180932B0180E20E94101166C04D
:1009D00080912E0181110FC080912B0190912C01EB
:1009E0000E94721B883C910530F487E20E94820FBE
:1009F00087E20E94B11080E20E9417114FC0F801F7
:100A000082818111D9CF80912E018111F4CF809103
:100A10002B0190912C010E94721B883C910558F784
:100A200080E20E94171188E20E94820F88E20E94F1
:100A3000B11034C00E946919282FF80182814091B9
:100A40000A0150910B01882379F02A7A91E009F488
:100A500090E090932801911102C069E201C065E322
:100A6000CA010E94D01A0AC080912801811102C0D7
:100A700069E201C065E3CA010E94D21A0E94B51959
:100A80000DC081E080932D0180932E01C801DF917C
:100A9000CF911F910F91FF900C94A00280E0DF9105
:100AA000CF911F910F91FF90089580E090E00895FD
:100AB000089596E0799FF00111249CE3899FE00D51
:100AC000F11D1124E60FF11DEE0FFF1FE65BFE4F37
:100AD000859194910895880F991FFC01EE54FD4F64
:100AE000859194910895CF93DF930E9459050E94B8
:100AF0006607EC01811521E5920708F042C08115D7
:100B000060E5960708F031C1883E910500F5803E0A
:100B1000910508F0D7C1883A910570F4853A91059E
:100B200008F0A6C08130910509F4CCC108F47DC15C
:100B3000049708F0C7C179C18F3B910508F4A3C0A1
:100B4000803C910508F471C1805C9109FDC0C1151C
:100B500080E3D80780F4C11590E2D90708F0F2C00D
:100B6000C03FD10508F461C1CF3FD10511F008F0B5
:100B7000A9C1D065A7C1C11520E4D20708F0F2C011
:100B8000E7C0811569E5960760F5C11588E5D807C6
:100B900008F037C1C11594E5D90778F4C11523E5EC
:100BA000D20708F013C1C11562E5D60708F0F8C0F6
:100BB000DC2FCC27C16FD06A85C1C11585E5D80768
:100BC00008F41AC1C11596E5D90708F02EC18C2F7B
:100BD0000E94E3078F71C82FD0E0DC2FCC27D062B2
:100BE00071C18D3B2CE5920709F416C1F0F4CB3BA3
:100BF0008CE5D80709F40AC108F00BC1C1152AE534
:100C0000D20708F012C18C2F8F700E94E30794E086
:100C1000D695C7959A95E1F7CF70D0E0DC2FCC2719
:100C2000D06A8F70806EC82B4DC1803C9C4509F402
:100C3000F9C0C13C8CE5D80760F4CE3B9CE5D907F0
:100C400009F4EDC0CF3BDC4509F0EFC0C0E0D2EDC8
:100C500039C1CE0190568115904208F0E6C08D2F23
:100C60008F710E94E307DD27D0628F71D82B2AC1D4
:100C7000853A910509F4DCC0863A910509F0DBC09C
:100C8000C2E8D0E41FC1883A910509F4D7C0893A77
:100C9000910509F4D6C08A3A910509F4D5C08B3A7A
:100CA000910509F4D4C08C3A910509F4D3C08B3B6B
:100CB000910509F4D2C08C3B910509F4D1C08D3A5D
:100CC000910509F4D0C0803B910509F4CFC08E3A5C
:100CD000910509F4CEC08F3A910509F4CDC0813B4E
:100CE000910509F4CCC0823B910509F4CBC0833B4C
:100CF000910509F4CAC0843B910509F4C9C0853B3C
:100D0000910509F4C8C0863B910509F4C7C0873B2B
:100D1000910509F4C6C0883B910509F4C5C0893B1B
:100D2000910509F4C4C08D3B910509F4C3C08E3B05
:100D3000910509F4C2C08A3B910509F4C1C0C0E025
:100D4000D4E4C0C0CE019F700E946B05EC01BAC014
:100D5000CE019927D3FF03C0EC01D86CB3C0EC01DE
:100D6000D06CB0C0DF70D06AADC0837021E030E0DD
:100D700002C0220F331F8A95E2F73C68CE0174E06F
:100D8000969587957A95E1F78370382BCF70C69545
:100D9000C69580E2C89FE0011124C22BD32B92C0DC
:100DA0004C2F4695469590E2499FA0011124C370AF
:100DB000DD2721E030E0C90102C0880F991FCA95E4
:100DC000E2F7EC01C42BD52BDC687CC04C2F469598
:100DD000469580E2489FA0011124C370DD2721E0E1
:100DE00030E0C90102C0880F991FCA95E2F7EC01F3
:100DF000C42BD52BDA6866C0DC2FCC27C46FD06A31
:100E000061C0DC2FCC27C06FD06A5CC0C0E0D4EDDD
:100E100059C0C0E0D5ED56C0C0E0D1ED53C0C0E030
:100E2000D0ED50C0C0E0D3ED4DC0C0E0D0E04AC02E
:100E3000C1E8D0E447C0C3E8D0E444C0C2EED4E483
:100E400041C0C9EED4E43EC0CAEED4E43BC0C5EB19
:100E5000D4E438C0C6EBD4E435C0C3EBD4E432C02C
:100E6000C4EBD4E42FC0C7EBD4E42CC0CCECD4E466
:100E700029C0CDECD4E426C0C3E8D5E423C0CAE839
:100E8000D5E420C0C2E9D5E41DC0C4E9D5E41AC048
:100E9000C1E2D6E417C0C3E2D6E414C0C4E2D6E48B
:100EA00011C0C5E2D6E40EC0C6E2D6E40BC0C7E26C
:100EB000D6E408C0CFE6D4E405C0C0E7D4E402C05D
:100EC000CAE2D6E4CE01DF91CF9108958238910530
:100ED00049F1B0F48133910509F458C048F48932DE
:100EE000910509F44EC08A32910509F454C0089561
:100EF0008533910509F440C08933910599F008952F
:100F0000833E910529F138F4803E910591F0823EAF
:100F10009105A1F00895863E9105F9F0873E91056F
:100F200031F108952091130220FD3AC021FD38C00F
:100F300008958091130280FD35C032C08091130264
:100F400082FF32C08091130284FD30C083EE39C02D
:100F50008091130282FD28C0F5CF8091130283FF98
:100F600027C08091130284FD21C087EE2AC08091A2
:100F7000130283FD1DC0F5CF8091130285FD1AC0B9
:100F80001BC08091130285FD17C014C0809113020D
:100F900086FD14C015C08091130286FD11C00EC0DD
:100FA00080EE0FC089E30DC082EE0BC080E009C067
:100FB00086EE07C089E205C085E303C08AE201C06E
:100FC00081E390E008959091130292FF0DC0282FC5
:100FD0002871283019F4877F846006C0282F247177
:100FE000243011F48B7F886093FF0DC0282F287167
:100FF000283119F4877E846106C0282F247124319A
:1010000011F48B7E886194FD877E089508950C9479
:10101000060808950C9409080895E82FF0E0EB5CA9
:10102000FE4F8081089508958091D6018360886085
:101030008093D6018091000180910001811102C04E
:1010400095E001C090E09093E50185E0891B8093D5
:10105000E401ADE1B1E041E050E025E02A0F8D91DF
:10106000E82FE295EF70F0E031A18F70BA0102C075
:10107000660F771F8A95E2F7CB01962F9095932301
:1010800091A392A1892B82A32A13E9CFA7E1B1E012
:1010900041E050E026E02A0F8D91E82FE295EF70B5
:1010A000F0E031A18F70BA0102C0660F771F8A95F8
:1010B000E2F7CB01962F9095932391A392A1892BD0
:1010C00082A32A13E9CFE5E3F1E08AE08E0F1192C3
:1010D0008E13FDCF85E00E9434090C9414036F92A7
:1010E0007F929F92AF92BF92CF92DF92EF92FF9248
:1010F0000F931F93CF93DF932DE1622E21E0722E89
:10110000A0E3B1E020E001E010E035E0B32EBA0E3C
:101110007D01AC901C92E30189913E01E82FE2959C
:10112000EF70F0E031A18F70A80102C0440F551F8D
:101130008A95E2F7CA01342B31A342A1382F3095AA
:10114000432342A350EA5A95F1F797E1C92E91E063
:10115000D92E40E050E0E60199906E01692D62952C
:101160006F7070E0EB0168A170E0D92DDF7002C0F4
:1011700075956795DA95E2F760FD07C0B801042E12
:1011800001C0660F0A94EAF702C060E070E07C914B
:10119000672B6C934F5F5F4F46305105E1F691A18D
:1011A000392331A392A1892B82A3119681E0F70103
:1011B0009081A91201C080E0282BBA12A9CF6091BA
:1011C000E50170E06B5C7E4F45E080E391E00E94BA
:1011D000350981E0DF91CF911F910F91FF90EF9042
:1011E000DF90CF90BF90AF909F907F906F900895C9
:1011F000CF930E946F08C82F0E946B09882339F192
:101200002091E401822F90E08B5C9E4F0E94A10907
:10121000811118C090912F019F5F90932F019630FC
:1012200098F04091E40120E030E050E0F901E40F53
:10123000F51FEB5CFE4F10822F5F3F4F25303105CD
:10124000A9F702C010922F010E94A6020AC02091A5
:10125000E501822F90E08B5C9E4F0E94C5090E94A1
:101260000C088C2FCF9108950895FF920F931F9330
:10127000CF93DF938C01F62ED72FC42F222349F072
:1012800081E0809341010E94661B9093400180930E
:101290003F01809141018823C1F080913F019091ED
:1012A00040010E94721B069780F0EF2DFD2FD801A0
:1012B0004C2F50E0CD01801B910B841795071CF437
:1012C0008D918193F7CF10924101DF91CF911F91C2
:1012D0000F91FF90089580914201811112C0809179
:1012E000D80080618093D8008AE18A95F1F700C028
:1012F0008091D90080FD02C082E001C081E080932E
:10130000420181E090914201913009F080E008951E
:101310000C946B090E948809809300010E946B095C
:1013200081110C9495090C949B0961E070E081E0B7
:1013300091E00C94480D61E070E081E091E00C9444
:10134000510DCF93DF93D82FC92F0E94F40D892B15
:10135000C1F4ED2FFC2F80E090E0DC01AB5BBE4FD1
:101360002C912193019685309105B9F78091150252
:1013700080FF02C0869501C080E08093440181E037
:1013800001C080E0DF91CF91089520E030E0FC01C2
:101390004191CF01F901EB5BFE4F40832F5F3F4F3F
:1013A00025303105A1F7809144010C94A802EF92F9
:1013B000FF920F931F93CF93DF93E901662309F404
:1013C0004BC0242F30E0EFEFF0E0E61BF109B9014C
:1013D000E69F9001E79F300DF69F300D1124232FDB
:1013E0008B01031B11095CE3E52EF12CB7010E9470
:1013F0009B24FB01BC01069FC001079F900D169F17
:10140000900D1124B7010E949B24E230F105B1F048
:1014100040F4309779F0319711F5832F242F461B34
:1014200021C0E430F105A1F068F03597C1F4842FB4
:10143000861B18C0832F262F230F14C0862F830FDF
:10144000E42F03C0E42FE61B842F432F2E2F0AC066
:10145000842F462F430F06C0842F242F03C080E023
:1014600020E040E0E42FF0E0EE54FD4F4491E22F05
:10147000F0E0EE54FD4F9491E82FF0E0EE54FD4F74
:10148000E49149839883EA83DF91CF911F910F9173
:10149000FF90EF9008958091E601982F96959F73A5
:1014A000913021F0817882608093E6013091E601ED
:1014B000432F441F4427441F2091E701522F550F0B
:1014C000852F842B27FB992790F9893641E09407D3
:1014D0007CF068E671E00E94AF2480FB37F930931E
:1014E000E60186952078822B90FB87F98093E701AF
:1014F000089588E090E00C940D25CF93DF9300D001
:1015000000D0CDB7DEB7AB01BC0149835A836B83F2
:101510007C830E944B0A49815A816B817C8188E0DF
:1015200090E00F900F900F900F90DF91CF910C945F
:101530002B25E6EEF1E083E080831092E7018FEF48
:1015400082838383148260817181828193810C9470
:101550007D0A8091EA0190E001968430910514F0B3
:1015600083E090E08093EA016091E6017091E701E9
:101570008091E8019091E9010C947D0A8091EA0143
:1015800090E0019797FF02C080E090E084309105E1
:1015900014F083E090E08093EA016091E60170919D
:1015A000E7018091E8019091E9010C947D0A809116
:1015B0004A0123E0829FC001112485519E4F609112
:1015C000090170E02091E60120FD0DC020E030E02F
:1015D000F901E551FE4F1182108212822D5F3F4FBB
:1015E00024323105A9F70C94EA0CE6EEF1E0808193
:1015F0008E7F808360817181828193810E947D0AC8
:101600002FEF80E792E0215080409040E1F700C04A
:1016100000000C94D70A9091E60190FF0FC020E0E3
:1016200030E0F901E551FE4F8183608342832D5FF5
:101630003F4F24323105A9F70C94D70A0895DF9261
:10164000EF92FF920F931F93CF93DF9300D01F92DF
:10165000CDB7DEB73091E60130FF31C0D22E042F76
:10166000F62EE92E182F3E77323051F49E012F5F6F
:101670003F4F0E94D7094B8169818A810E940B0BE1
:101680008091E60110FB87F98093E6011695809121
:10169000E7018078182BE0FA17F91093E701F09230
:1016A000E8010093E901DD2051F06091E6017091BD
:1016B000E7018091E8019091E9010E947D0A0F9075
:1016C0000F900F90DF91CF911F910F91FF90EF90AE
:1016D000DF900895282FE6EEF1E09081991F992779
:1016E000991F3091E701832F880F482F492B37FB33
:1016F000552750F9CA010A9668E671E00E94AF24A6
:10170000438162810C941F0B81E00C946A0B282F9B
:101710009091E601991F9927991F3091E701832F36
:10172000880F482F492B37FB552750F9CA014A30FB
:1017300051051CF4825A9E4F01C00A9768E671E079
:101740000E94AF244091E9016091E8010C941F0BC5
:1017500081E00C94870B6091E801262F30E02F3E4A
:10176000310514F46F5E01C06FEF3091E601331F55
:101770003327331F9091E701592F550F97FB992776
:1017800090F9282F4091E901852F832B0C941F0B92
:1017900081E00C94AB0B6091E801262F30E0213101
:1017A000310514F0615101C060E03091E601331F52
:1017B0003327331F9091E701592F550F97FB992736
:1017C00090F9282F4091E901852F832B0C941F0B52
:1017D00081E00C94CB0B4091E901242F30E02F3EA7
:1017E000310514F44F5E01C04FEF3091E601331F15
:1017F0003327331F9091E701592F550F97FB9927F6
:1018000090F9282F6091E801852F832B0C941F0BF2
:1018100081E00C94EB0B4091E901242F30E0213161
:10182000310514F0415101C040E03091E601331F11
:101830003327331F9091E701592F550F97FB9927B5
:1018400090F9282F6091E801852F832B0C941F0BB2
:1018500081E00C940B0C20E00C941F0B8091E601AE
:1018600080FF23C0817882608093E601662351F077
:101870006091E6017091E7018091E8019091E901A2
:101880000E947D0A8091E601881F8827881F909119
:10189000E701292F220F97FB992790F94091E90141
:1018A0006091E801822B0C942B0C0895682F81E045
:1018B0000C942E0C81E00C94560C682F9091E6014C
:1018C00096959F738FEF890F09F481E00C942E0C8D
:1018D00081E00C945D0C61E00C942E0CE6EEF1E0DE
:1018E00080818160808386958F730C946B0C8091CE
:1018F000E60180FD0C94F50A0C946E0C60E00C94EB
:101900002E0C80914B01811132C08091D6018160F3
:101910008093D6010E94191A811104C00E949C1A5A
:101920000E94990A0E94790A6093E6017093E70188
:101930008093E8019093E9016E7761F40E94990A1F
:101940000E94790A6093E6017093E7018093E801B1
:101950009093E9010E944B0A8091E60180FF04C048
:1019600086958F730E947E0C81E080934B010895D1
:101970002BB1342F309523233BB1432B3FB7F89441
:10198000FC01680F791FE617F70789F0819198E04D
:101990004BB9000000C087FF2BB9880F000000C0C2
:1019A00000C000C02BB900C09A9591F7ECCF3FBFA3
:1019B00008952AB1242B2AB99B01220F331F620FED
:1019C000731F0E94B80C87EC90E00197F1F700C0FC
:1019D0000000089548E00C94D90C8EE1489B02C0A9
:1019E0008150E1F7489BFECF0895589880E28A9590
:1019F000F1F7589A0895FC013AE03A95F1F798E02A
:101A000020E080E031E040E14A95F1F7880F489B03
:101A100002C08160232700C0000040E14A95F1F731
:101A2000915089F790E19A95F1F799B100C00000C3
:101A300030E13A95F1F7917092272081920F9083CF
:101A40000895FF920F931F93CF93DF9300D0CDB7EC
:101A5000DEB71982F82E8C01802F8F19861760F45B
:101A60006A830E94ED0CCE0101960E94FB0CF801E6
:101A700081938F016A81F0CF81E09981911180E09B
:101A80000F900F90DF91CF911F910F91FF900895CC
:101A900090934E0180934D0160934C01509A589A57
:101AA000089590934E0180934D0160934C0150989E
:101AB000589AE89AE9E6F0E080818C7F8083089567
:101AC000615091E001C0990F6A95EAF720E031E09A
:101AD000992361F0492F482319F0589A232701C010
:101AE000589840E24A95F1F79695F2CF222311F0EB
:101AF000589A01C0589880E28A95F1F7589808954D
:101B0000EF92FF920F931F93CF93DF931F92CDB766
:101B1000DEB7162F082F7C018E2D801B811758F4FD
:101B2000F70181917F0189830E94F50C68E089812A
:101B30000E94600DF1CF0F90DF91CF911F910F9117
:101B4000FF90EF9008951F920F920FB60F921124FD
:101B50002F933F934F935F936F937F938F939F93B5
:101B6000AF93BF93CF93DF93EF93FF935898509A1F
:101B7000C0914D01D0914E016D81662321F08E817F
:101B80009F810E94800D0E94F50C80E18A95F1F7FB
:101B900058985098589A80E18A95F1F76A8166239F
:101BA00051F08B819C810E94210DE881F981811186
:101BB00004C082E003C0E881F98188E080830E944C
:101BC000ED0CFF91EF91DF91CF91BF91AF919F917C
:101BD0008F917F916F915F914F913F912F910F90D6
:101BE0000FBE0F901F901895CF93DF93C0914D01BA
:101BF000D0914E01F894509A589885E08A95F1F763
:101C000000005098589A80E28A95F1F7489B0AC0E4
:101C1000509A589AE881F98181E08083789481E034
:101C200090E02CC06D81662381F08E819F810E949F
:101C3000210D81110AC0509A589AE881F98182E0F9
:101C40008083789482E090E019C00E94ED0C80E2DD
:101C50008A95F1F75898509A80E18A95F1F76A8150
:101C6000662321F08B819C810E94800D0E94F50CDF
:101C7000E881F9811082789480E090E0DF91CF9143
:101C8000089590935401809353010895E091530176
:101C9000F0915401309721F00190F081E02D0994EA
:101CA00080E00895E0915301F0915401309721F0C4
:101CB0000280F381E02D0994089520915101309123
:101CC00052018217930771F0909352018093510152
:101CD000E0915301F0915401309721F00680F78193
:101CE000E02D0994089520914F0130915001821701
:101CF000930771F09093500180934F01E09153014D
:101D0000F0915401309721F00084F185E02D099481
:101D1000089585B7806885BF85B7806885BF0895B9
:101D200008950C94900E08950C94930E0E94890EC1
:101D30000E948A090C94910E0E945D1B0E94140857
:101D40000E94D31B0E94E11C0E94810C0C94940EF3
:101D5000CF92DF92EF92FF920F931F93CF93DF9377
:101D6000CDB7DEB72B970FB6F894DEBF0FBECDBF51
:101D70000E94F8080E946B09811111C08FEF8983BE
:101D80008A831B820E94661B8160782F9D838C83CF
:101D900049815A816B818D810E944E0F56C086E524
:101DA000C82E81E0D82E00E010E0E02E802F0E94A7
:101DB0000D08F60141916F01F42EF82631F40F5F02
:101DC0001F4F0A30110589F7D9CF9091D60191FFA5
:101DD00004C08B870E9413088B8520E030E04F2DD4
:101DE00050E0922FBA01022E02C0759567950A94B1
:101DF000E2F760FF24C02E83EF8221E030E069012A
:101E000002C0CC0CDD1C9A95E2F790E08C219D215C
:101E1000892B09F420E028870E94661B8160782FB7
:101E20009A8789874E815F8168858A850E944E0FD7
:101E3000F801EA5AFE4F8081C826C08206C02F5F93
:101E40003F4F2630310569F6BACF109155010E94F7
:101E5000460E1817A1F00E94460E809355012B964E
:101E60000FB6F894DEBF0FBECDBFDF91CF911F91AB
:101E70000F91FF90EF90DF90CF900C9421032B9661
:101E80000FB6F894DEBF0FBECDBFDF91CF911F918B
:101E90000F91FF90EF90DF90CF900895CF93DF9355
:101EA000CDB7DEB72B970FB6F894DEBF0FBECDBF10
:101EB0004F83588769877A878B87DE01119686E082
:101EC000FD0111928A95E9F785E0FE0137960190B0
:101ED0000D928A95E1F749815A816B817C818D81D0
:101EE0009E810E945C162B960FB6F894DEBF0FBE43
:101EF000CDBFDF91CF910895FC01808191810E9437
:101F00002A190895CF93DF931F92CDB7DEB78823A8
:101F100009F423C1682F8238C1F40E94460E81FD66
:101F20001CC169E380910A0190910B010E94D01AB3
:101F30000E94B5192FEF81EE94E02150804090402F
:101F4000E1F700C0000069E319C0833811F50E9471
:101F5000460E80FD02C163E580910A0190910B015C
:101F60000E94D01A0E94B5192FEF81EE94E0215003
:101F700080409040E1F700C0000063E580910A01D5
:101F800090910B010E94D21A0F90DF91CF910C9487
:101F9000B5198438C1F40E94460E82FDDEC067E4A4
:101FA00080910A0190910B010E94D01A0E94B519EC
:101FB0002FEF81EE94E0215080409040E1F700C087
:101FC000000067E4DBCF8CEF860F813A70F4862F38
:101FD00069830E94A51C69818111BFC080910A019B
:101FE00090910B010E94D01ACFCF80E2860F8830EB
:101FF00048F4677081E001C0880F6A95EAF70E9493
:102000006C19C2CF8BE5860F833088F4653A29F0CE
:10201000663A31F083E890E005C081E890E002C0C4
:1020200082E890E00F90DF91CF910C945D0E88E5EF
:10203000860F873108F091C0683A09F445C0693AC3
:1020400009F445C06A3A09F445C06B3A09F445C041
:102050006C3A09F445C06B3B09F445C06C3B09F48C
:1020600045C06D3A09F445C0603B09F445C06E3A7D
:1020700009F445C06F3A09F445C0613B09F445C015
:10208000623B09F445C0633B09F445C0643B09F475
:1020900045C0653B09F445C0663B09F445C0673B54
:1020A00009F445C0683B09F445C0693B09F445C0E3
:1020B0006D3B09F445C06E3B09F445C06A3B09F429
:1020C00045C080E090E044C082EE90E041C089EEDF
:1020D00090E03EC08AEE90E03BC085EB90E038C0D7
:1020E00086EB90E035C083EB90E032C084EB90E06B
:1020F0002FC087EB90E02CC08CEC90E029C08DECD9
:1021000090E026C083E891E023C08AE891E020C0F7
:1021100082E991E01DC084E991E01AC081E292E079
:1021200017C083E292E014C084E292E011C085E21D
:1021300092E00EC086E292E00BC087E292E008C017
:102140008FE690E005C080E790E002C08AE292E06E
:102150000F90DF91CF910C94730E0F90DF91CF9180
:102160000895882309F45BC0682F823879F40E94AF
:10217000460E81FF54C069E380910A0190910B01E2
:102180000E94D01A0E94B51969E310C08338B1F4D7
:102190000E94460E80FF43C063E580910A01909142
:1021A0000B010E94D01A0E94B51963E580910A01C3
:1021B00090910B010E94D21A0C94B519843879F4CD
:1021C0000E94460E82FF2BC067E480910A01909125
:1021D0000B010E94D01A0E94B51967E4E7CF8CEF7B
:1021E000860F813A18F380E2860F883048F46770D2
:1021F00081E001C0880F6A95EAF70E947219DCCF6E
:102200008BE5860F833020F480E090E00C945D0E27
:10221000685A673120F480E090E00C94730E0895C2
:10222000882321F00E946C190C94B5190895882315
:1022300021F00E9472190C94B51908954F925F9283
:102240006F927F92BF92CF92DF92EF92FF920F93A5
:102250001F93CF93DF937C01D62FC72FFC010581FD
:1022600002950F70128111110E9489190E94621942
:10227000882379F0112369F080E28D0F883048F0CF
:1022800082E00E94001A0E94621991E0B82EB926DD
:1022900001C0B12CCC2EC2948FE0C822D12CF60103
:1022A000E859FF4F0C94E5248C2F807FCF70882352
:1022B00011F0C295C07F112399F0CC2309F48EC18F
:1022C00080E28D0F883010F0D11104C08C2F0E9455
:1022D0006C1903C08C2F0E947C190E94B5197EC115
:1022E0008D2F0E94B110CC2309F4C1C180E28D0F63
:1022F000883010F0D11104C08C2F0E94721903C0D5
:102300008C2F0E9482190E94B519B1C18C2F807F39
:10231000CF70803211F0C295C07FDD2319F0D1302B
:10232000C9F022C0112371F0002341F0013031F4D3
:102330000E949C198C2B0E94A21999C10E949C1981
:102340008C2B1DC0002319F0013009F490C10E94AC
:10235000AB191AC0112321F0063008F088C10EC055
:10236000053008F084C110C0112361F0002331F062
:10237000F701858180FF32C18F7085838C2F0E9489
:10238000101175C101113BC18C2FE6C08C2F8695B1
:102390008695837090E0009719F0019761F067C10E
:1023A000112321F08D2F9C2F937002C080E090E0CC
:1023B0000E945D0E6CC1112321F08D2F9C2F937014
:1023C00002C080E090E00E94730E61C18C2F837088
:1023D00009F050C0111157C18D2F829586958770D5
:1023E000880F880F9D2F9F70492E512C612C712CC6
:1023F000082E04C0440C551C661C771C0A94D2F7A6
:10240000D4FF14C00FE010E020E030E0B901A801D3
:1024100004C0440F551F661F771F8A95D2F7CB0162
:10242000BA01609570958095909503C060E070E06A
:10243000CB01C695C695C370D0E0C230D10561F01E
:10244000C330D10581F06429752986299729219700
:1024500071F00E94A11717C164297529862997294F
:102460000E94B31710C10E94A117C301B2010E94BC
:102470008F1709C1112319F08C2F817001C0869527
:10248000882309F400C18D2F829586958770880F67
:10249000880F9D2F9F70492E512C612C712C082E76
:1024A00004C0440C551C661C771C0A94D2F7D4FF58
:1024B00014C00FE010E020E030E0B901A80104C032
:1024C000440F551F661F771F8A95D2F7CB01BA01BB
:1024D000609570958095909503C060E070E0CB01A9
:1024E000C695C695C3704C2F50E04230510569F037
:1024F0004330510589F0642975298629972941308F
:10250000510571F00E946718BEC06429752986299B
:1025100097290E947918B7C00E946718C301B201B9
:102520000E945518B0C08D2F90E0FC01E05EF109CB
:10253000E531F10508F04EC0E858FF4F0C94E52452
:10254000DF708C2F8F71112321F00E94EE178D2FD9
:1025500016CF0E940F188D2F0E94171188C01123CB
:1025600041F0053008F083C08C2F8F710E94341821
:102570007EC0063008F07BC0F7CF112339F08C2FD6
:102580008F710E94EE1773C01123C9F38C2F8F71C6
:102590000E940F186CC0112329F08C2F8F710E949C
:1025A000D91765C00E94D41762C0112349F0CF71BA
:1025B0008C2F0E94EE1763E08C2F0E94EB1957C0FE
:1025C00081E00E94001A023008F451C082E00E94AB
:1025D000001A4DC0112331F0002389F28D2F0E9483
:1025E000820F45C0002391F2D93349F45FEF67EEC3
:1025F00073E0515060407040E1F700C000008D2F43
:102600000E94B11034C04C2F4F706D2FC7010E9433
:1026100055050E9400173BC0111139C0CF70D0E0A2
:10262000C230D10599F03CF4209769F02197F9F474
:102630000E941B1D2CC0C430D10571F054F02597A9
:10264000B1F480E00AC00E94FE1C21C00E945A1D05
:102650001EC00E94611D1BC085E00E94841D17C022
:102660004C2F4F706D2FC7010E94580510C088E095
:10267000C816D10441F05CF0EAE0CE1AD108F2E0CD
:10268000CF16D10420F40E94460E0E942103BB20E5
:10269000F1F00E945E1980FD1AC0F70112820E94BB
:1026A00058190E94EE17C7010E9475130E9458190D
:1026B000DF91CF911F910F91FF90EF90DF90CF901E
:1026C000BF907F906F905F904F900C940F18DF91A8
:1026D000CF911F910F91FF90EF90DF90CF90BF901F
:1026E0007F906F905F904F9008950F931F93CF93BB
:1026F000DF93EC01888199812B813C81232BB9F0F8
:102700009F3F11F48F3F99F0CE010E943903882337
:1027100071F0688179818A810E9435198C010E944B
:102720008B180E948C17B801CE010E941E11DF91F8
:10273000CF911F910F9108950E9489190E949919B4
:102740000E94B51980E090E00E945D0E80E090E06C
:102750000C94730E80910A0190910B010E94D41A7F
:102760000C949C130E9479190C94AA13E92FE295FA
:10277000EF70F0E03297EE30F105B0F4E357FF4F21
:102780000C94E524803F91F018F4803E68F40EC06C
:10279000843F51F40BC0803E48F0813F29F406C0CD
:1027A00093FB882780F9089580E0089581E00895DB
:1027B0000E942A190E94B6130895CF93DF9300D088
:1027C00000D01F92CDB7DEB70F900F900F900F90F3
:1027D0000F90DF91CF910895CF93DF9300D000D079
:1027E00000D0CDB7DEB726960FB6F894DEBF0FBE89
:1027F000CDBFDF91CF9108951F93CF93DF93C09109
:10280000610116E080916201C81799F0D0E01C9F29
:10281000F0011D9FF00D1124ED59FE4F40815181B3
:1028200062817381848195810E94EC132196C77027
:10283000E9CFDF91CF911F9108954091930150917D
:10284000940160919501709196018091970190910A
:1028500098010C94EC138091980182958F7009F087
:1028600054C080919501882309F44FC08091610183
:10287000A091620160919301709194014091960141
:1028800050919701B6E08A1709F43FC090E04115D6
:102890005105C1F17F3F11F46F3FA1F1B89FF001E5
:1028A000B99FF00D1124ED59FE4F218172132AC0FA
:1028B0002081621327C02281211124C02381348109
:1028C0002417350710F421503109241B350B283CFF
:1028D0003105C0F4209198012F7020612093980158
:1028E00026E0289FF001299FF00D1124E859FE4FA2
:1028F00080818F708061808383E991E00E947513ED
:102900000C94FC1301968770BECF0895CF92DF928E
:10291000EF92FF920F931F93CF93DF93CDB7DEB764
:1029200062970FB6F894DEBF0FBECDBF8C0185E075
:10293000F801DE011D9601900D928A95E1F7D8010C
:102940004C9111965C91119712966C911297139677
:10295000CD90DC9014973091930170919401809107
:10296000960190919701009709F46BC17F3F19F48C
:102970003F3F09F466C1E0909501EE2009F4C0C024
:1029800020919801C816D90628F0F601E81BF90B2A
:10299000CF0104C0809590958C0D9D1DFF24F3946C
:1029A000883C910578F0F12C207F09F0C6C07C2D81
:1029B000D98AC88A89890E94DD1383E991E00E943F
:1029C0007513B1C0822F807F09F046C0751314C003
:1029D000341312C0611110C02F7020612093980130
:1029E0000E941D1483E991E00E9475138091980163
:1029F000D80115968C932EC0CD2819F15F3F11F4A4
:102A00004F3FF9F0F62E61111CC0809161012091B9
:102A1000620136E0821709F45AC090E0389FF00155
:102A2000399FF00D1124ED59FE4F7181571306C0E7
:102A30007081471303C07281711103C001968770C2
:102A4000E9CFF62E662309F427C1809198018160B1
:102A500080939801F12C20C1751308C0341306C06F
:102A6000611104C080919801D801C3C04D875E8771
:102A70008D859E856A8B0E94D8136A898823E1F12F
:102A80006623D1F120919801822F82958F7090E07A
:102A9000029774F0809193019091940198878F83AD
:102AA0001986DB86CA862C87CE0107960E9475138D
:102AB00086E0F801A3E9B1E001900D928A95E1F773
:102AC0000E942B140E941D14FF24F394E5C04D872F
:102AD0005E878D859E850E942A19292F22952F7049
:102AE00030E0223031050CF0CBC09F7009F0C5C03A
:102AF000805E883008F4D0C0C8010E947513E4CF0E
:102B0000C816D90608F453C0F601E81BF90BCF012B
:102B1000883C910508F450C0F12C7C2DD98AC88AD4
:102B200089890E94DD13E3E9F1E086E0DF011D926F
:102B30008A95E9F70E941D14AFC0751314C03413B1
:102B400012C0611110C080919801F8018583C801FD
:102B50000E94751386E0E3E9F1E0DF011D928A959A
:102B6000E9F7FE2C99C04D875E878D859E856A8B1F
:102B70000E94D8136A89882309F4BECF662309F41A
:102B8000BBCF20919801822F82958F7090E00297A1
:102B90000CF48ECF80919301909194019A83898354
:102BA0001B82DD82CC822E83CE0101967FCF809561
:102BB00090958C0D9D1DACCFF62E662309F49CCF0D
:102BC00075132EC034132CC02091980120FD1FC016
:102BD000822F82958F70D9F0D80115962C93159776
:102BE0008F3049F08F5F982F9295907F822F8F7052
:102BF000892B15968C93C8010E94751386E0F80105
:102C0000A3E9B1E001900D928A95E1F793CF86E0B8
:102C1000F801A3E9B1E001900D928A95E1F73CC07B
:102C20004D875E878D859E850E94D813811140CF88
:102C300080919801816080939801C8010E9475136A
:102C40002BC0662309F458CF4D875E878D859E85FE
:102C50000E94D813F82E882309F44ECF86E0F8019D
:102C6000A3E9B1E001900D928A95E1F783E991E043
:102C70000E947C0F0E942B145DCF811139CF0CC0B4
:102C8000243031050CF038CF9F7009F431CFF801B2
:102C90009581907F09F02CCF8F2D62960FB6F89416
:102CA000DEBF0FBECDBFDF91CF911F910F91FF907F
:102CB000EF90DF90CF9008951F93CF93DF93CDB720
:102CC000DEB72C970FB6F894DEBF0FBECDBF4F8393
:102CD000588769877A878B879C87CE0107960E94E1
:102CE0008614882369F08F8198852A853B85232B5C
:102CF000F1F19F3F09F063C08F3F09F060C037C01A
:102D000086E0FE013796DE01119601900D928A95BC
:102D1000E1F76F817885EA85FB85309741F17F3F48
:102D200011F46F3F21F12091620130E0C901019659
:102D3000877099274091610150E08417950709F445
:102D400047C069837A83FD83EC8396E0929FD0012C
:102D5000939FB00D1124AD59BE4FFE0131960190E5
:102D60000D929A95E1F7809362010E94FC1316E0A0
:102D700080916101909162018917C1F1189FC00192
:102D800011248D599E4F0E948614882379F1E09179
:102D900061011E9FF0011124ED59FE4F40815181C8
:102DA00062817381848195810E94EC13809161011D
:102DB00090E001968770992780936101D9CF4F8168
:102DC000588569857A858B859C850E94EC13CFCFC9
:102DD0000E94B2131092620110926101E3E9F1E0E6
:102DE00086E0DF011D928A95E9F7C1CF2C960FB6D8
:102DF000F894DEBF0FBECDBFDF91CF911F91089534
:102E0000EF92FF920F931F93CF93DF938C01892B47
:102E100009F46CC0F12CEE24E394E8012196F8014A
:102E20008491843740F4843008F051C0813081F0BF
:102E3000823019F15BC0853709F444C0A8F19CE7E2
:102E4000980F903708F052C08F770E94B11041C0A0
:102E50000E5F1F4FFE01C49180E28C0F883048F452
:102E6000C7708E2D01C0880FCA95EAF70E948C1991
:102E700014C08C2F0E94820F2DC00E5F1F4FFE01C9
:102E8000C49180E28C0F883058F4C7708E2D01C039
:102E9000880FCA95EAF70E9492190E94B5191AC0C4
:102EA0008C2F0E94B11016C00E5F1F4FFE01C491FF
:102EB000CC2381F08FE99FE00197F1F700C000007B
:102EC000C150F6CF0E5F1F4FFE01F49003C00E9469
:102ED000820F8E018F2D882309F49FCFEFE9FFE049
:102EE0003197F1F700C000008150F5CFDF91CF910D
:102EF0001F910F91FF90EF90089508950C947D1706
:102F00000E947E176093C5017093C6018093C7012C
:102F10009093C8010C949C1308950C9480170F9300
:102F20001F930091C5011091C6012091C7013091F6
:102F3000C801602B712B822B932B1F910F910C9446
:102F400080170F931F930091C5011091C601209126
:102F5000C7013091C80160237123822393231F91FD
:102F60000F910C9480170F931F930091C50110913E
:102F7000C6012091C7013091C801602771278227BF
:102F800093271F910F910C94801708950C94C517E7
:102F90000E94C6176093C1017093C2018093C30160
:102FA0009093C4010C949C1360E070E0CB010C94EE
:102FB000C8170F931F9341E050E060E070E08A0172
:102FC0009B0104C0000F111F221F331F8A95D2F7E7
:102FD000C901B8011F910F910C94C8170F931F934B
:102FE00041E050E060E070E004C0440F551F661FF0
:102FF000771F8A95D2F78091C1019091C201A0916B
:10300000C301B091C4018A019B01082B192B2A2B03
:103010003B2BC901B8011F910F910C94C8170F9356
:103020001F9341E050E060E070E004C0440F551F82
:10303000661F771F8A95D2F74095509560957095D9
:103040008091C1019091C201A091C301B091C401CE
:103050008A019B01082319232A233B23C901B801B4
:103060001F910F910C94C8170F931F9341E050E0EC
:1030700060E070E004C0440F551F661F771F8A95FB
:10308000D2F78091C1019091C201A091C301B0918A
:10309000C4018A019B01082719272A273B27C90158
:1030A000B8011F910F910C94C8170F931F930091B3
:1030B000C1011091C2012091C3013091C401602B64
:1030C000712B822B932B1F910F910C94C8170F9388
:1030D0001F930091C1011091C2012091C301309151
:1030E000C40160237123822393231F910F910C94B9
:1030F000C8170F931F930091C1011091C201209135
:10310000C3013091C40160277127822793271F9143
:103110000F910C94C8170895292F220F920F990F21
:10312000890FA82FA695A695A695877051E001C096
:10313000550F8A95EAF785E0A89FD001112420E079
:1031400030E070E0F901EA0FFB1FE756FE4F4081C7
:10315000CB01022E02C0969587950A94E2F7817002
:103160009927819584278523842780832F5F3F4F6C
:103170002530310539F70895292F220F920F990F25
:10318000890F682F669566956695982F977085E0EC
:10319000689FB001112440E050E080E0FA01E60FA2
:1031A000F71FE756FE4F208130E0092E02C036950A
:1031B00027950A94E2F721703327042E01C0220FCD
:1031C0000A94EAF7822B4F5F5F4F4530510531F784
:1031D0000895BF92CF92DF92EF92FF920F931F93C9
:1031E000CF93DF938C01C090C501D090C601E090D1
:1031F000C701F090C8018091C1019091C201A091D6
:10320000C301B091C401C82AD92AEA2AFB2ACFE116
:10321000D0E0D701C6010C2E04C0B695A7959795AE
:1032200087950A94D2F780FF07C0BC2EB8018C2F77
:103230000E947305019719F4219758F7B12C8B2D33
:10324000DF91CF911F910F91FF90EF90DF90CF9082
:10325000BF900895CF93DF93EC010E94E918BE015F
:103260000E947305DF91CF9108951F93CF93DF9351
:10327000EB0190916001992321F0CB010E942A1962
:1032800013C0882349F0CB010E94E918182F682F3A
:10329000CE010E948C1804C0CB010E94BC18182FCC
:1032A000BE01812F0E947305DF91CF911F91089578
:1032B0008091C90185958595859508958091C9016D
:1032C000877008959091C901977081E009F480E0BA
:1032D00008958091D50108959091D501892B80930F
:1032E000D501089580959091D50189238093D501CA
:1032F00008951092D50108959091D401892B80935F
:10330000D401089580959091D40189238093D401AC
:1033100008951092D40108959091D301892B809340
:10332000D301089580959091D30189238093D3018F
:1033300008951092D30108958091CA0108950895C7
:103340000C949F199091CA01981721F08093CA019B
:103350000C94A01908958091CA01882329F0109235
:10336000CA0180E00C94A0190895E0910A01F0913F
:103370000B018091D5018083E0910A01F0910B014E
:1033800090818091D401892B8083E0910A01F09192
:103390000B0190818091D301892B80838091CA0198
:1033A000882381F0E0910A01F0910B019081892B33
:1033B000808380910A0190910B010E949E1A8111D5
:1033C0000E94AB1980910A0190910B010C94520E4E
:1033D00008950C94E81998E0899F90011124262BF8
:1033E0002093C9010E94EE178091C90185958595AA
:1033F00085950C94E9191092C90180E00C94E919A3
:103400002091C901809582238093C901982F9770DC
:1034100079F430E0482F082E000C550B241735079F
:1034200039F08595859585950E940F180C94FB19A8
:10343000089580E090E00E94132521E08D3E9E4F8C
:1034400009F020E0822F089582E090E00C94052599
:1034500083E090E00C94052584E090E00C94052531
:10346000682F84E090E00C94192586E090E00C949D
:103470000525682F86E090E00C941925AB01BC016E
:103480008FE090E00C942B25AB01BC0183E190E030
:103490000C942B2560E070E0CB010C94441A60E0A2
:1034A00070E0CB010E943E1A0C944A1A6DEE7EEF3A
:1034B00080E090E00E94372560E082E090E00E948A
:1034C000192560E083E090E00E9419251092C50163
:1034D0001092C6011092C7011092C80160E084E00A
:1034E00090E00E94192560E085E090E00E94192597
:1034F00060E086E090E00E9419256FEF87E090E0A1
:103500000E94192540E050E0BA0188E090E00E9456
:103510002B2560E08DE090E00E94192540E050E00E
:10352000BA0188E190E00E942B2560E087E190E0FD
:103530000E9419250C944F1A0C94561AFC013296CD
:1035400097E080E0915029F021912223D9F38F5FF9
:10355000F9CF08959C01FC0132969FEF80E04191E4
:10356000461789F09F3F19F4411101C0982F8F5FD2
:103570008630A9F79F3F39F0F901E90FF11D97FD5A
:10358000FA95628308950895FC0132960896208189
:10359000261301C010823196E817F907C1F7089584
:1035A0000C94AA1A0C94C41A029626E0FC011192FB
:1035B0002A95E9F7089508950C94DB1A0E94DC1A05
:1035C00080911A02843061F11092D70120E488E1E1
:1035D00090E00FB6F894A895809360000FBE2093FA
:1035E000600080E00E94A80280E00E9421030E9407
:1035F000DC1A83B7817F846083BF83B7816083BF18
:103600007894889583B78E7F83BF0FB6F894A8957A
:1036100080916000886180936000109260000FBE0E
:10362000089508950895CF930E94111B0E94F808F1
:103630000E94121BC0E08C2F0E940D08811104C053
:10364000CF5FCA30C1F701C081E0CF9108950895DE
:103650000C94271B0E94B2130E94E11C0E94460E8C
:103660000E9421030C94281B1F920F920FB60F92F9
:1036700011248F939F93AF93BF938091D7018111B2
:1036800013C080910F0290911002A0911102B0918D
:1036900012024196A11DB11D80930F02909310025A
:1036A000A0931102B0931202BF91AF919F918F919D
:1036B0000F900FBE0F901F90189582E084BD93E08D
:1036C00095BD9AEF97BD80936E0008952FB7F8943B
:1036D00080910F0290911002A0911102B0911202FC
:1036E0002FBF0895CF92DF92EF92FF920F931F9317
:1036F0002FB7F89440910F0250911002609111027F
:10370000709112022FBF6A017B01EE24FF248C010D
:1037100020E030E0C016D106E206F30610F4415076
:1037200051099A01281B390BC9011F910F91FF9074
:10373000EF90DF90CF90089578941F920F920FB67C
:103740000F9211248F939F93AF93BF9380910F0299
:1037500090911002A0911102B09112020196A11D48
:10376000B11D80930F0290931002A0931102B093A9
:103770001202BF91AF919F918F910F900FBE0F904A
:103780001F90189587E797E79093010880930008AA
:103790009AE088E10FB6F894A895809360000FBE78
:1037A00090936000FFCF0E94191A811102C00E94FD
:1037B0009C1A0E94241A8093D6010E942C1A90E031
:1037C00090931402809313020E94281A682F70E0CD
:1037D00080E090E00C948D170F931F938B3109F4C8
:1037E00074C058F58B3009F4A1C078F4863009F420
:1037F00046C020F4853009F44CC09FC0873009F4DE
:1038000056C0883009F492C098C0803109F470C065
:1038100068F48E3009F091C08091D60182FB222796
:1038200020F991E0922790FB82F958C0863109F483
:103830007DC0893109F47AC080C08A32E9F060F431
:10384000873209F475C028F48E3108F476C08D51A2
:103850005AC08932F1F071C0833450F48A3308F0D1
:1038600051C0853309F464C0883309F45FC065C072
:10387000833409F45DC061C00E949C1A57C08091D6
:10388000D601817F8E7F8093D60181E08093D8011D
:1038900055C00E94B2130FEF13ED20E3015010400A
:1038A0002040E1F700C000000E94C21B3FC0809191
:1038B000D601982F9095917090FB80F98093D60156
:1038C000911134C0897F877F10C08091D60181FB20
:1038D000222720F991E0922790FB81F98093D6016D
:1038E000992321F18091D60181608093D6011EC079
:1038F0008091D60183FB222720F991E0922790FB4B
:1039000083F9ECCF895341E050E060E070E08A0138
:103910009B0104C0000F111F221F331F8A95D2F78D
:10392000C901B8010E948D170E94B21381E006C040
:1039300061E070E080E090E0F5CF80E01F910F91B2
:10394000089580E0089580E00895CF93C82F809176
:10395000D801882319F0813031F02BC00E946919F9
:10396000823249F504C00E946919823261F48C2FB9
:103970000E94A11C811104C08C2F0E94EC1B17C057
:1039800081E090E014C08C2F0E94A31C81110EC016
:10399000C43149F018F4CB3049F00FC0C93219F0E6
:1039A000C83321F00AC01092D80107C081E08170AD
:1039B00006C01092D80180E002C080E0F8CFCF911D
:1039C00008950E94191A811102C00E949C1A0E9437
:1039D000351A80931502282F269530E026303105C0
:1039E00024F081708A60809315028091150280FF17
:1039F00002C0869501C080E00C94A80220911502B7
:103A0000822F8695482F50E04530510544F48F5F52
:103A1000982F990F822F8170892B809315028091A6
:103A200015028160809315020E94391A8091150257
:103A300086950C94A80280911502982F969591F086
:103A40009158990F8170892B809315028E7F91E098
:103A500009F490E08091150290FB80F980931502A3
:103A60000E94391A8091150286950C94A8028091C3
:103A7000150280FD11C0816080931502813019F418
:103A800083E080931502809115020E94391A80917B
:103A9000150286950C94A80208958091150280FF66
:103AA00008C08E7F809315020E94391A80E00C9422
:103AB000A80208958091150280FD0C944D1D0C9470
:103AC000371D90911502892F86958F5F8F779170A2
:103AD000863028F4880F892B8093150202C09093BA
:103AE0001502809115028E7F91E009F490E080919B
:103AF000150290FB80F9809315020E94391A80917B
:103B0000150286950C94A802863008F085E0880F8F
:103B1000909115029170892B809315028E7F91E010
:103B200009F490E08091150290FB80F980931502D2
:103B30000E94391A8091150286950C94A8028091F2
:103B4000E101089508950F931F93CF93DF9300D061
:103B50001F92CDB7DEB78C010E94D21F823011F0C8
:103B6000843021F584E089831B830A8382E080937B
:103B7000E9008FEF9091E800815095FD06C095ED2A
:103B80009A95F1F700008111F5CF8091E80085FF4B
:103B90000DC040E050E063E070E0CE0101960E946D
:103BA000EF1F8091E8008E778093E8000F900F90D0
:103BB0000F90DF91CF911F910F910895CF93DF93D5
:103BC00000D01F92CDB7DEB720911A02243031F514
:103BD00023E02983805891099B838A8382E0809324
:103BE000E9008FEF9091E800815095FD06C095EDBA
:103BF0009A95F1F700008111F5CF8091E80085FFDB
:103C00000DC040E050E063E070E0CE0101960E94FC
:103C1000EF1F8091E8008E778093E8000F900F905F
:103C20000F90DF91CF910895CF93DF93EC010E9425
:103C3000D21F823011F0843039F581E08093E900A1
:103C40008FEF9091E800815095FD06C095ED9A9513
:103C5000F1F700008111F5CF8091E80085FF14C0D5
:103C600040E050E068E070E0CE010E94EF1F8091DC
:103C7000E8008E778093E80088E0FE01A9EDB1E0CE
:103C800001900D928A95E1F7DF91CF91089580918F
:103C90001902811109C00E9484210E94E1218091B2
:103CA000E20084608093E200089510921902089562
:103CB000089508950C942A1B42E061EC81E00E9473
:103CC000FE2042E261EC82E00C94FE2080911C0216
:103CD000833009F460C030F4813071F0823009F42F
:103CE00099C008958A3009F485C08B3009F46BC0FF
:103CF000893009F0A7C020C080911B02813A09F0E9
:103D0000A1C08091E800877F8093E80080911F0226
:103D100090912002892B21F468E089ED91E003C0A5
:103D200060E080E090E070E00E943A208091E8003E
:103D30008B778093E800089580911B02813209F00F
:103D400081C080911F0290912002029708F07AC0F2
:103D50008091E800877F8093E8008091E80082FDF1
:103D600005C080911A028111F8CF6CC02091F30038
:103D70008091F20090E0922B029729F48091F1005B
:103D80008B7F813021F48091F1008093E10180915B
:103D9000E8008B7753C080911B02813A09F052C032
:103DA00080911F0290912002892B09F04BC08091D5
:103DB000E800877F8093E8008091E80080FFFCCFD7
:103DC0008091160136C080911B028132D9F5809115
:103DD0001F0290912002892BA9F58091E800877F2E
:103DE0008093E8000E94332180911D028093160188
:103DF0000C94B21380911B02813221F58091E8006E
:103E0000877F8093E8000E94332180911E02809377
:103E1000E201089580911B02813AA1F48091E800AB
:103E2000877F8093E8008091E80080FFFCCF80913D
:103E3000E2018093F1008091E8008E778093E800A2
:103E40000C943321089584B7877F84BF0FB6F8940C
:103E5000A895809160008861809360001092600056
:103E60000FBE80E880936100109261000E94960E60
:103E70000E9484210E94E1218091E200846080936D
:103E8000E20078940E9470240E949C0E8CE091E0E5
:103E90000E94410E80911A02853069F40E94DE1A58
:103EA000809118028823B1F30E94131B882391F399
:103EB0000E94D91FEFCF0E94A80EECCF0C94601F78
:103EC000292F332723303105C9F064F4213031051F
:103ED00081F02230310509F04CC08BE390E02AEEEE
:103EE00033E04BC02132310521F12232310589F115
:103EF00040C082E190E025E234E03FC09927813064
:103F0000910571F02CF4892BA1F5E6EEF3E00DC0DC
:103F10008230910541F0039761F5E2EBF3E005C0D3
:103F2000E6EDF3E002C0E8EBF3E0849190E09F015E
:103F300024C06115710541F061307105D1F489E04B
:103F400090E025E134E019C089E090E02CEF33E007
:103F500014C06115710541F06130710551F486E3BB
:103F600090E027E334E009C080E490E02DE634E0FF
:103F700004C080E090E020E030E0FA01318320834B
:103F800008950895CF93C82F0E94C11FC093E301E5
:103F9000CF91089580911A02843011F081E0089544
:103FA00082E008958091E301811102C00C94CA1F40
:103FB000089580E189BD82E189BD09B400FEFDCF8D
:103FC0008091D8008F7D8093D8008091E00082603E
:103FD0008093E0008091E00081FDFCCF0895CF92B6
:103FE000DF92EF92FF920F931F93CF93DF93EC0139
:103FF0008B016A010E945221811133C0C114D10486
:1040000039F0F60180819181081B190BC80FD91F67
:10401000E12CF12C0115110519F18091E80085FDC5
:1040200016C08091E8008E778093E800C114D10417
:1040300049F0F60180819181E80EF91EF182E0825B
:1040400085E00FC00E945221882321F30AC0899184
:104050008093F10001501109FFEFEF1AFF0ADACF48
:1040600080E0DF91CF911F910F91FF90EF90DF9053
:10407000CF90089520912102309122022617370710
:1040800048F06115710539F42091E8002E772093EE
:10409000E80001C0B90140E061157105A9F1209166
:1040A0001A02222309F443C0253009F442C02091AA
:1040B000E80023FD40C02091E80022FD32C020919D
:1040C000E80020FFE9CF4091F3002091F20030E0BA
:1040D000342BFC01CF016115710559F028303105F1
:1040E00040F481918093F100615071092F5F3F4F3F
:1040F000F1CF41E02830310509F040E02091E8009F
:104100002E772093E800C8CF4111C9CF0AC0809113
:104110001A02882361F0853061F08091E80083FD08
:104120000AC08091E80082FFF2CF80E0089582E02B
:10413000089583E0089581E008952091210230914F
:1041400022022617370748F06115710539F42091CE
:10415000E8002E772093E80001C0B901FC0120E0BF
:104160006115710591F180911A02882309F440C00C
:10417000853009F43FC08091E80083FD3DC0809107
:10418000E80082FD2FC08091E80080FFE9CF2091F8
:10419000F3008091F20090E0922B6115710559F0C7
:1041A0008830910540F424912093F10031966150BC
:1041B00071090196F2CF21E0089709F020E0809183
:1041C000E8008E778093E800CBCF2111CCCF0AC0D6
:1041D00080911A02882361F0853061F08091E800B7
:1041E00083FD0AC08091E80082FFF2CF80E008954D
:1041F00082E0089583E0089581E00895982F973034
:1042000058F59093E900981739F07091EC002091DF
:10421000ED005091F00003C0242F762F50E021FFD5
:1042200019C03091EB003E7F3093EB003091ED00F0
:104230003D7F3093ED003091EB0031603093EB0027
:104240007093EC002093ED005093F0002091EE006D
:1042500027FF07C09F5FD3CF8F708093E90081E075
:10426000089580E0089580911B0287FF11C080911E
:10427000E80082FD05C080911A028111F8CF11C0BB
:104280008091E8008B770BC080911A02882349F057
:104290008091E80080FFF8CF8091E8008E778093CE
:1042A000E80008952091E4003091E50095E6409102
:1042B000EC00842F817040FF22C08091E80080FDD7
:1042C0001CC080911A02882391F0853091F0809172
:1042D000EB0085FD10C04091E4005091E5004217CD
:1042E000530729F39A01915011F784E0089582E071
:1042F000089583E0089581E0089580E00895409155
:10430000E80042FFDECF08950E94F2210E94FA21C8
:10431000E0EEF0E0808181608083E8EDF0E0808174
:104320008F77808319BCA7EDB0E08C918E7F8C9342
:1043300080818F7E80831092190208950F931F93BE
:10434000CF93DF930E94F2210E94FA21C8EDD0E0C2
:1043500088818F77888388818068888388818F7D32
:10436000888319BC10921A02109216021092180239
:104370001092170200EE10E0F80180818B7F80839D
:1043800088818160888342E060E080E00E94FE20B6
:10439000E1EEF0E080818E7F8083E2EEF0E08081CC
:1043A00081608083808188608083F80180818E7F36
:1043B0008083888180618883DF91CF911F910F91E5
:1043C0000895E8EDF0E080818F7E8083E7EDF0E0F6
:1043D00080818160808384E082BF81E080931902C4
:1043E0000C949E21E8EDF0E080818E7F8083109216
:1043F000E20008951092DA001092E10008951F92F1
:104400000F920FB60F9211242F933F934F935F9308
:104410006F937F938F939F93AF93BF93EF93FF938C
:104420008091E10082FF0BC08091E20082FF07C013
:104430008091E1008B7F8093E1000E946F24809146
:10444000DA0080FF1FC08091D80080FF1BC08091E0
:10445000DA008E7F8093DA008091D90080FF0DC052
:1044600080E189BD82E189BD09B400FEFDCF81E014
:1044700080931A020E94471E05C019BC10921A02AE
:104480000E94551E8091E10080FF19C08091E200DA
:1044900080FF15C08091E2008E7F8093E2008091C2
:1044A000E20080618093E2008091D8008062809376
:1044B000D80019BC85E080931A020E94591E809191
:1044C000E10084FF30C08091E20084FF2CC080E1D5
:1044D00089BD82E189BD09B400FEFDCF8091D8007D
:1044E0008F7D8093D8008091E1008F7E8093E100E2
:1044F0008091E2008F7E8093E2008091E2008160F3
:104500008093E20080911602882311F084E007C0B6
:104510008091E30087FD02C081E001C083E08093C9
:104520001A020E945A1E8091E10083FF29C08091E7
:10453000E20083FF25C08091E100877F8093E10046
:1045400082E080931A02109216028091E1008E7F21
:104550008093E1008091E2008E7F8093E200809161
:10456000E20080618093E20042E060E080E00E942F
:10457000FE208091F00088608093F0000E94581E19
:10458000FF91EF91BF91AF919F918F917F916F912B
:104590005F914F913F912F910F900FBE0F901F9001
:1045A00018951F920F920FB60F9211242F933F93DD
:1045B0004F935F936F937F938F939F93AF93BF932B
:1045C000CF93DF93EF93FF93C091E900CF70809179
:1045D000EC00D82FD17080FDD0E81092E9008091D6
:1045E000F000877F8093F00078940E94152310924A
:1045F000E9008091F00088608093F000CD2BCF70AF
:10460000C093E900FF91EF91DF91CF91BF91AF91FE
:104610009F918F917F916F915F914F913F912F91DA
:104620000F900FBE0F901F9018951F93CF93DF939D
:10463000CDB7DEB7AA970FB6F894DEBF0FBECDBFD9
:10464000EBE1F2E088E08E0F9091F10091938E13F0
:10465000FBCF0E94661E8091E80083FF28C18091F5
:104660001B0290911C02492F50E04A30510508F07E
:104670001EC1FA01E556FF4F0C94E524803821F065
:10468000823809F014C108C0809117029091180275
:10469000992389F082600FC080911F028F7087304C
:1046A00008F005C18093E9008091EB0085FB882725
:1046B00080F91092E9009091E800977F9093E800CC
:1046C0008093F1001092F100D0C0282F2D7F09F0C7
:1046D000EEC0882319F0823061F0E9C080911D029C
:1046E000813009F0E4C0933009F080E08093180233
:1046F0002EC080911D0281112AC080911F028F70EF
:104700002FEF280F263008F0D2C08093E9002091C7
:10471000EB0020FF1CC0933021F48091EB008062FD
:1047200014C09091EB0090619093EB0021E030E099
:10473000A90102C0440F551F8A95E2F74093EA0091
:104740001092EA008091EB0088608093EB00109259
:10475000E9008091E800877F8093E8000E94332180
:10476000A6C08111A4C010911D021F778091E300A3
:104770008078812B8093E3008091E800877F80938D
:10478000E8000E9433218091E80080FFFCCF8091F7
:10479000E30080688093E300111102C082E001C051
:1047A00083E080931A0283C08058823008F07FC073
:1047B00080911D0290911E028C3D53E0950779F582
:1047C00083E08A838AE289834FB7F894DE011396E7
:1047D00020E03EE051E2E32FF0E050935700E491F7
:1047E00020FF03C0E295EF703F5FEF708E2F90E0E7
:1047F000EA3010F0C79601C0C0968D939D932F5F4D
:10480000243149F74FBF8091E800877F8093E8000B
:104810006AE270E0CE0101960E943A2015C06091D4
:104820001F0270912002AE014F5F5F4F0E945E1F1A
:10483000BC01892BE1F19091E800977F9093E8000B
:1048400089819A810E949D208091E8008B778093D6
:10485000E8002DC0803859F58091E800877F80936B
:10486000E800809116028093F1008091E8008E7735
:1048700073CF81111CC090911D029230C0F48091C1
:10488000E800877F8093E800909316020E9433210E
:1048900080911602811106C08091E30087FD02C05D
:1048A00081E001C084E080931A020E945C1E809126
:1048B000E80083FF0AC08091E800877F8093E800CA
:1048C0008091EB0080628093EB00AA960FB6F8947B
:1048D000DEBF0FBECDBFDF91CF911F910895089528
:1048E000CF9380911A028823A1F0C091E900CF7084
:1048F0009091EC00892F817090FD80E8C82B109278
:10490000E9008091E80083FD0E941523CF70C093D9
:10491000E900CF910895DB018F939F930E94FA24C1
:10492000BF91AF91A29F800D911DA39F900DB29F4B
:10493000900D11240895AA1BBB1B51E107C0AA1FAB
:10494000BB1FA617B70710F0A61BB70B881F991F30
:104950005A95A9F780959095BC01CD01089597FBD4
:10496000072E16F4009407D077FD09D00E949B24EF
:1049700007FC05D03EF4909581959F4F0895709562
:1049800061957F4F0895A1E21A2EAA1BBB1BFD0162
:104990000DC0AA1FBB1FEE1FFF1FA217B307E4071E
:1049A000F50720F0A21BB30BE40BF50B661F771F76
:1049B000881F991F1A9469F7609570958095909556
:1049C0009B01AC01BD01CF010895EE0FFF1F0590C3
:1049D000F491E02D0994A29FB001B39FC001A39F61
:1049E000700D811D1124911DB29F700D811D112428
:1049F000911D08950E94EB24A59F900DB49F900DEA
:104A0000A49F800D911D11240895F999FECF92BDA8
:104A100081BDF89A992780B50895A6E1B0E044E0F9
:104A200050E00C943F25A8E1B0E042E050E00C9447
:104A30003F25262FF999FECF92BD81BDF89A0197A7
:104A400000B4021639F01FBA20BD0FB6F894FA9AD6
:104A5000F99A0FBE08950396272F0E941A250E94E7
:104A60001925252F0E941A25242F0C941A2501960A
:104A7000272F0E941A250C941925DC01CB01FC017B
:104A8000F999FECF06C0F2BDE1BDF89A319600B4A7
:0E4A90000D9241505040B8F70895F894FFCFB2
:104A9E000143010144010545010CCB019F1D141E6C
:104AAE00A21DDE1DA31D01F6F73133323697C63433
:084ABE009294000000000000CA
:00000001FF
